{
  "contractName": "Donation",
  "abi": [
    {
      "constant": true,
      "inputs": [],
      "name": "donationCount",
      "outputs": [
        {
          "name": "",
          "type": "uint256"
        }
      ],
      "payable": false,
      "stateMutability": "view",
      "type": "function",
      "signature": "0x2abfab4d"
    },
    {
      "constant": true,
      "inputs": [],
      "name": "donationTotal",
      "outputs": [
        {
          "name": "",
          "type": "uint256"
        }
      ],
      "payable": false,
      "stateMutability": "view",
      "type": "function",
      "signature": "0xec031016"
    }
  ],
  "bytecode": "0x608060405260008055600060015534801561001957600080fd5b5060bb806100286000396000f3fe60806040526004361060485763ffffffff7c01000000000000000000000000000000000000000000000000000000006000350416632abfab4d8114604d578063ec031016146071575b600080fd5b348015605857600080fd5b50605f6083565b60408051918252519081900360200190f35b348015607c57600080fd5b50605f6089565b60005481565b6001548156fea165627a7a723058200c5a292243a843123eca24b2b2029956a5f56361b624a580719a4972c074d6030029",
  "source": "pragma solidity ^0.5.0;\r\n\r\ncontract Donation {\r\n  uint public donationCount = 0;\r\n  uint public donationTotal = 0;\r\n}",
  "sourcePath": "D:/learn_2022/blockchain/blockchain-donation-app/contracts/Donation.sol",
  "compiler": {
    "name": "solc",
    "version": "0.5.0+commit.1d4f565a.Emscripten.clang"
  },
  "schemaVersion": "3.0.1",
  "updatedAt": "2022-04-01T11:33:33.690Z",
  "devdoc": {
    "methods": {}
  },
  "userdoc": {
    "methods": {}
  }
}